:1000000009C00EC00DC00CC00BC00AC009C008C09A
:1000100007C006C011241FBECFE9CDBF02D05FC00C
:10002000EFCF87E087BB18BA83E886B9B3E017B88B
:10003000369A3699FECF84B195B18115934028F454
:1000400063E371E04CEC52E004C064EA70E049E91B
:1000500051E0BC9AC49A84E08A95F1F786B3C498BB
:1000600094E09A95F1F726B3209528232870BC9840
:1000700084E08A95F1F7B7B9369A3699FECF84B104
:1000800095B1F1E04817590708F0F0E0A1E08617B4
:10009000970708F0A0E04817590710F4C11104C0F1
:1000A0008617970710F4E1113FEFE8B3E87FE8BB4C
:1000B000222321F0C29ACA2FEF2FB9CF86179707B4
:1000C00010F4C19A06C04817590718F488B3856020
:1000D00088BB332381F3C298C09A3150ECCFF89497
:0200E000FFCF50
:00000001FF
