:1000000009C016C015C014C013C012C011C010C062
:100010000FC00EC011241FBECFE9CDBF20E0A0E667
:10002000B0E001C01D92A336B207E1F702D068C06C
:10003000E7CF87E087BB18BA83E886B9F3E0AFEF74
:1000400017B8369A3699FECF84B195B163E371E063
:100050004CEC52E08115934020F064EA70E049E9ED
:1000600051E0BC9AC49A84E08A95F1F796B3C4989B
:1000700024E02A95F1F786B3809589238870BC988F
:10008000F7B9369A3699FECF24B135B1E1E042177F
:10009000530708F0E0E091E02617370708F090E0FA
:1000A000B09162004217530728F02617370728F44B
:1000B000B0916100B111A0936000E0936100909352
:1000C000620098B3987F98BB882311F0C29AB8CF8A
:1000D0002617370770F4C19A80916000882309F4CD
:1000E000AFCFC298C09A8091600081508093600029
:1000F000A7CF4217530780F788B3856088BBECCF42
:04010000F894FFCFA1
:00000001FF
