:1000000009C016C016C014C013C012C011C010C061
:100010000FC00EC011241FBECFE9CDBF20E0A0E667
:10002000B0E001C01D92A136B207E1F711D08DC03A
:10003000E7CF1F920F920FB60F9211248F9382E396
:10004000809360008F910F900FBE0F901F901895B6
:1000500087E087BB18BA83E886B980E28BBF8FB789
:1000600080688FBFA8E0B3E0C2E317B8369A36992C
:10007000FECF84B195B18115934028F463E371E01C
:100080004CEC52E004C064EA70E049E951E0BC9AEB
:10009000C49A84E08A95F1F78AB780628ABFA5BBCB
:1000A0008BE291E00197F1F700C0000015BA96B31A
:1000B000C49824E02A95F1F786B380958923887047
:1000C000BC9894E09A95F1F7B7B9369A3699FECF75
:1000D00024B135B1E1E04217530708F0E0E0F1E068
:1000E0002617370708F0F0E081110BC042175307BD
:1000F00010F4111104C02617370718F4D111C0935A
:10010000600090916000911180E098B3987F98BB57
:10011000882321F0C29A1F2FDE2FA7CF261737077B
:1001200010F4C19A06C04217530718F488B38560CB
:1001300088BB80916000882371F3C298C09A809137
:0E0140006000815080936000E6CFF894FFCFFE
:00000001FF
